{
  "contractName": "Attendance",
  "abi": [
    {
      "anonymous": false,
      "inputs": [
        {
          "indexed": false,
          "internalType": "string",
          "name": "studentId",
          "type": "string"
        },
        {
          "indexed": false,
          "internalType": "string",
          "name": "classId",
          "type": "string"
        },
        {
          "indexed": false,
          "internalType": "bool",
          "name": "isPresent",
          "type": "bool"
        },
        {
          "indexed": false,
          "internalType": "uint256",
          "name": "timestamp",
          "type": "uint256"
        }
      ],
      "name": "AttendanceMarked",
      "type": "event"
    },
    {
      "inputs": [
        {
          "internalType": "string",
          "name": "",
          "type": "string"
        },
        {
          "internalType": "string",
          "name": "",
          "type": "string"
        }
      ],
      "name": "attendance",
      "outputs": [
        {
          "internalType": "bool",
          "name": "isPresent",
          "type": "bool"
        },
        {
          "internalType": "uint256",
          "name": "timestamp",
          "type": "uint256"
        }
      ],
      "stateMutability": "view",
      "type": "function",
      "constant": true
    },
    {
      "inputs": [
        {
          "internalType": "string",
          "name": "studentId",
          "type": "string"
        },
        {
          "internalType": "string",
          "name": "classId",
          "type": "string"
        }
      ],
      "name": "markAttendance",
      "outputs": [],
      "stateMutability": "nonpayable",
      "type": "function"
    },
    {
      "inputs": [
        {
          "internalType": "string",
          "name": "studentId",
          "type": "string"
        },
        {
          "internalType": "string",
          "name": "classId",
          "type": "string"
        }
      ],
      "name": "getAttendance",
      "outputs": [
        {
          "internalType": "bool",
          "name": "isPresent",
          "type": "bool"
        },
        {
          "internalType": "uint256",
          "name": "timestamp",
          "type": "uint256"
        }
      ],
      "stateMutability": "view",
      "type": "function",
      "constant": true
    }
  ],
  "bytecode": "0x608060405234801561001057600080fd5b50610702806100206000396000f3fe608060405234801561001057600080fd5b50600436106100415760003560e01c8063265f204c146100465780635d4c475c14610077578063f4b89ff6146100a8575b600080fd5b610060600480360381019061005b9190610365565b6100c4565b60405161006e9291906104f0565b60405180910390f35b610091600480360381019061008c9190610365565b61012e565b60405161009f9291906104f0565b60405180910390f35b6100c260048036038101906100bd9190610365565b6101b4565b005b60008280516020810182018051848252602083016020850120818352809550505050505081805160208101820180518482526020830160208501208183528095505050505050600091509150508060000160009054906101000a900460ff16908060010154905082565b6000806000808560405161014291906104d9565b90815260200160405180910390208460405161015e91906104d9565b90815260200160405180910390206040518060400160405290816000820160009054906101000a900460ff1615151515815260200160018201548152505090508060000151816020015192509250509250929050565b60008251116101f8576040517f08c379a00000000000000000000000000000000000000000000000000000000081526004016101ef9061058c565b60405180910390fd5b600081511161023c576040517f08c379a00000000000000000000000000000000000000000000000000000000081526004016102339061056c565b60405180910390fd5b60405180604001604052806001151581526020014281525060008360405161026491906104d9565b90815260200160405180910390208260405161028091906104d9565b908152602001604051809103902060008201518160000160006101000a81548160ff021916908315150217905550602082015181600101559050507f14c5d82dc609a1413ab5602d386a1ed625046080f5313543b5b55967b961b00d82826001426040516102f19493929190610519565b60405180910390a15050565b600061031061030b846105dd565b6105ac565b90508281526020810184848401111561032857600080fd5b61033384828561064a565b509392505050565b600082601f83011261034c57600080fd5b813561035c8482602086016102fd565b91505092915050565b6000806040838503121561037857600080fd5b600083013567ffffffffffffffff81111561039257600080fd5b61039e8582860161033b565b925050602083013567ffffffffffffffff8111156103bb57600080fd5b6103c78582860161033b565b9150509250929050565b6103da81610634565b82525050565b60006103eb8261060d565b6103f58185610618565b9350610405818560208601610659565b61040e816106bb565b840191505092915050565b60006104248261060d565b61042e8185610629565b935061043e818560208601610659565b80840191505092915050565b6000610457601583610618565b91507f436c6173732049442069732072657175697265642e00000000000000000000006000830152602082019050919050565b6000610497601783610618565b91507f53747564656e742049442069732072657175697265642e0000000000000000006000830152602082019050919050565b6104d381610640565b82525050565b60006104e58284610419565b915081905092915050565b600060408201905061050560008301856103d1565b61051260208301846104ca565b9392505050565b6000608082019050818103600083015261053381876103e0565b9050818103602083015261054781866103e0565b905061055660408301856103d1565b61056360608301846104ca565b95945050505050565b600060208201905081810360008301526105858161044a565b9050919050565b600060208201905081810360008301526105a58161048a565b9050919050565b6000604051905081810181811067ffffffffffffffff821117156105d3576105d261068c565b5b8060405250919050565b600067ffffffffffffffff8211156105f8576105f761068c565b5b601f19601f8301169050602081019050919050565b600081519050919050565b600082825260208201905092915050565b600081905092915050565b60008115159050919050565b6000819050919050565b82818337600083830152505050565b60005b8381101561067757808201518184015260208101905061065c565b83811115610686576000848401525b50505050565b7f4e487b7100000000000000000000000000000000000000000000000000000000600052604160045260246000fd5b6000601f19601f830116905091905056fea264697066735822122078fe28a33c5701513c0c1a936d39530bbb4edca9989422f5b7c1fb00be16cba664736f6c63430008000033",
  "immutableReferences": {},
  "source": "// SPDX-License-Identifier: MIT\r\npragma solidity ^0.8.0;\r\n\r\ncontract Attendance {\r\n    // Structure to store attendance details\r\n    struct AttendanceRecord {\r\n        bool isPresent; // Whether the student is present\r\n        uint256 timestamp; // The time of attendance\r\n    }\r\n\r\n    // Mapping to store attendance by student ID and class ID\r\n    mapping(string => mapping(string => AttendanceRecord)) public attendance;\r\n\r\n    // Event to log attendance marking\r\n    event AttendanceMarked(string studentId, string classId, bool isPresent, uint256 timestamp);\r\n\r\n    // Function to mark attendance\r\n    function markAttendance(string memory studentId, string memory classId) public {\r\n        require(bytes(studentId).length > 0, \"Student ID is required.\");\r\n        require(bytes(classId).length > 0, \"Class ID is required.\");\r\n\r\n        // Mark the attendance\r\n        attendance[studentId][classId] = AttendanceRecord(true, block.timestamp);\r\n\r\n        // Emit the event\r\n        emit AttendanceMarked(studentId, classId, true, block.timestamp);\r\n    }\r\n\r\n    // Function to get attendance record\r\n    function getAttendance(string memory studentId, string memory classId)\r\n        public\r\n        view\r\n        returns (bool isPresent, uint256 timestamp)\r\n    {\r\n        AttendanceRecord memory record = attendance[studentId][classId];\r\n        return (record.isPresent, record.timestamp);\r\n    }\r\n}\r\n",
  "sourcePath": "C:\\Users\\user\\blockchain\\contracts\\Attendance.sol",
  "compiler": {
    "name": "solc",
    "version": "0.8.0+commit.c7dfd78e.Emscripten.clang"
  },
  "schemaVersion": "3.4.16",
  "updatedAt": "2024-12-07T09:36:37.441Z",
  "networkType": "ethereum",
  "devdoc": {
    "kind": "dev",
    "methods": {},
    "version": 1
  },
  "userdoc": {
    "kind": "user",
    "methods": {},
    "version": 1
  }
}